:020000040000FA
:10000000600100206D020000710200007302000018
:10001000750200007502000075020000000000007B
:100020000000000000000000000000007502000059
:10003000750200000000000075020000750200005B
:1000400075020000750200007502000075020000D4
:1000500075020000750200007502000075020000C4
:1000600075020000750200007502000075020000B4
:1000700075020000750200007502000075020000A4
:100080007502000075020000750200007502000094
:100090007502000075020000750200007502000084
:1000A0007502000075020000750200007502000074
:1000B0007502000075020000750200007502000064
:1000C0007502000075020000750200007502000054
:1000D0007502000075020000750200007502000044
:1000E0007502000075020000750200007502000034
:1000F0007502000075020000750200007502000024
:100100007502000075020000750200007502000013
:100110007502000075020000750200007502000003
:1001200075020000750200007502000075020000F3
:1001300075020000750200007502000075020000E3
:1001400000000000000000000000000000000000AF
:1001500075020000750200007502000075020000C3
:10016000000000000000000000000000000000008F
:10017000000000000000000000000000000000007F
:10018000000000000000000000000000000000006F
:10019000000000000000000000000000000000005F
:1001A000000000000000000000000000000000004F
:1001B0007502000075020000750200007502000063
:1001C0007502000075020000750200007502000053
:1001D0007502000075020000750200007502000043
:1001E0007502000075020000750200007502000033
:1001F0007502000075020000750200007502000023
:100200007502000075020000750200000000000089
:100210007502000075020000750200007502000002
:1002200075020000750200007502000075020000F2
:1002300075020000750200007502000075020000E2
:1002400075020000750200007502000075020000D2
:1002500075020000750200007502000075020000C2
:1002600075020000750200007502000000F004B87D
:10027000FEE7FEE7FEE7000000F002F800F02CF8D1
:100280000AA090E8000C82448344AAF10107DA45F1
:1002900001D100F021F8AFF2090EBAE80F0013F017
:1002A000010F18BFFB1A43F00103184718040000A0
:1002B000280400000023002400250026103A28BF4F
:1002C00078C1FBD8520728BF30C148BF0B607047C8
:1002D0001FB51FBD10B510BD00F047F81146FFF760
:1002E000F7FF00F019F800F065F803B4FFF7F2FF2C
:1002F00003BC00F069F800000138FDD17047000030
:1003000002480349014A034B704700006000002087
:1003100060010020600000200F4800F0D9F80F486D
:1003200000F072F901214FF0402000F0C0F811E018
:10033000002201214FF0402000F0C7F80848FFF7E5
:10034000DBFF012211464FF0402000F0BEF80448C8
:10035000FFF7D2FFECE70000803B800701000020A0
:1003600055581400704770477047754600F028F8DC
:10037000AE4605006946534620F00700854618B092
:1003800020B5FFF7BDFFBDE820404FF000064FF05D
:1003900000074FF000084FF0000B21F00701AC46BA
:1003A000ACE8C009ACE8C009ACE8C009ACE8C009D9
:1003B0008D4670470446AFF300802046FFF795FF57
:1003C000004870470000002001491820ABBEFEE73E
:1003D000260002007047D0F8003412F0010F0CBF65
:1003E0008B430B43C0F8003412F0020FD0F82024E6
:1003F0000CBF22EA01011143C0F820147047D0F865
:1004000000C512F0010F0CBF2CEA010C4CEA010CE4
:10041000C0F800C5D0F804C512F0020F0CBF2CEADA
:10042000010C4CEA010CC0F804C5D0F808C512F064
:10043000040F0CBF2CEA010C4CEA010CC0F808C5F3
:1004400012F0080FD0F818250CBF8A430A43C0F8F1
:100450001825D0F80C2513F0010F0CBF8A430A436E
:10046000C0F80C25D0F8102513F0020F0CBF8A43FA
:100470000A43C0F81025D0F8142513F0040F0CBF60
:100480008A430A43C0F81425D0F81C2513F0080F3E
:100490000CBF8A430A43C0F81C25D0F82825002B3E
:1004A00014BF22EA01011143C0F82815704730B586
:1004B00004460D460122FFF78EFF29462046BDE87F
:1004C000304008230122FFF79ABF40F821207047EF
:1004D0002DE9F041464F0446386810F0E04F05D052
:1004E000386844490840B0F1805F04D114F0004FEF
:1004F00018BFBDE8F081396E386F21F4800141F4F6
:10050000006540F400663D663E6715F0020F02D0BC
:1005100014F0020F04D025EA040010F0010F19D0E6
:1005200064F0030005403D6616F0004F08D006F069
:10053000700030281CBF702030EA060006D102E0AF
:100540003020A84302D14FF4805001E04FF4002046
:10055000FFF7D2FE25F4FE6043F2F07120F4405024
:10056000214041EA00082448244930402140084302
:1005700004F0080140EAC1054020B86515F0004FBD
:1005800018BF3D67C7F8608008BF3D671020FFF7C0
:10059000B3FE1B4928F0030020F0F860214001431E
:1005A00025F0FC5004F0FC52104314F0804F08BFBB
:1005B00020F0804206D0134A20F48000224041F40B
:1005C0008001024314F4006F0BD14FF400403B6DE7
:1005D00013F0400F01D1401EF9D121F4006122F443
:1005E000006239663A67BDE8F0411020FFF784BE2B
:1005F00000E00F400000FF708FDFFF7F30200080A1
:100600000300C00700004040064A010F52F82110C5
:100610000A6883B2C0F3044003FA00F01043086094
:10062000704700004406000010E00F4014E00F4047
:100630001CE00F4010E00F4040E00F4044E00F404E
:1006400048E00F4000E10F4004E10F4008E10F4097
:1006500010E10F4014E10F4018E10F4020E10F407E
:1006600024E10F4028E10F4040420F0000201C0011
:1006700080841E0000802500999E360000403800CE
:1006800000093D0000803E0000004B00404B4C0044
:1006900000204E00808D5B0000C05D000080700077
:1006A00000127A0000007D0080969800001BB700C1
:1006B0000080BB00C0E8CE00647ADA000024F400B9
:1006C0000000FA00D40600000000002060010000D5
:0406D000B402000070
:040000050000026D88
:00000001FF
